{
  "_format": "hh-sol-artifact-1",
  "contractName": "KleoverseNFTMint",
  "sourceName": "contracts/KleoverseNFTMint.sol",
  "abi": [
    {
      "inputs": [
        {
          "internalType": "string",
          "name": "baseURI",
          "type": "string"
        },
        {
          "internalType": "address",
          "name": "whitelistContract",
          "type": "address"
        }
      ],
      "stateMutability": "nonpayable",
      "type": "constructor"
    },
    {
      "anonymous": false,
      "inputs": [
        {
          "indexed": true,
          "internalType": "address",
          "name": "owner",
          "type": "address"
        },
        {
          "indexed": true,
          "internalType": "address",
          "name": "approved",
          "type": "address"
        },
        {
          "indexed": true,
          "internalType": "uint256",
          "name": "tokenId",
          "type": "uint256"
        }
      ],
      "name": "Approval",
      "type": "event"
    },
    {
      "anonymous": false,
      "inputs": [
        {
          "indexed": true,
          "internalType": "address",
          "name": "owner",
          "type": "address"
        },
        {
          "indexed": true,
          "internalType": "address",
          "name": "operator",
          "type": "address"
        },
        {
          "indexed": false,
          "internalType": "bool",
          "name": "approved",
          "type": "bool"
        }
      ],
      "name": "ApprovalForAll",
      "type": "event"
    },
    {
      "anonymous": false,
      "inputs": [
        {
          "indexed": true,
          "internalType": "address",
          "name": "previousOwner",
          "type": "address"
        },
        {
          "indexed": true,
          "internalType": "address",
          "name": "newOwner",
          "type": "address"
        }
      ],
      "name": "OwnershipTransferred",
      "type": "event"
    },
    {
      "anonymous": false,
      "inputs": [
        {
          "indexed": true,
          "internalType": "address",
          "name": "from",
          "type": "address"
        },
        {
          "indexed": true,
          "internalType": "address",
          "name": "to",
          "type": "address"
        },
        {
          "indexed": true,
          "internalType": "uint256",
          "name": "tokenId",
          "type": "uint256"
        }
      ],
      "name": "Transfer",
      "type": "event"
    },
    {
      "stateMutability": "payable",
      "type": "fallback"
    },
    {
      "inputs": [],
      "name": "_contractpaused",
      "outputs": [
        {
          "internalType": "bool",
          "name": "",
          "type": "bool"
        }
      ],
      "stateMutability": "view",
      "type": "function"
    },
    {
      "inputs": [],
      "name": "_nftprice",
      "outputs": [
        {
          "internalType": "uint256",
          "name": "",
          "type": "uint256"
        }
      ],
      "stateMutability": "view",
      "type": "function"
    },
    {
      "inputs": [
        {
          "internalType": "address",
          "name": "to",
          "type": "address"
        },
        {
          "internalType": "uint256",
          "name": "tokenId",
          "type": "uint256"
        }
      ],
      "name": "approve",
      "outputs": [],
      "stateMutability": "nonpayable",
      "type": "function"
    },
    {
      "inputs": [
        {
          "internalType": "address",
          "name": "owner",
          "type": "address"
        }
      ],
      "name": "balanceOf",
      "outputs": [
        {
          "internalType": "uint256",
          "name": "",
          "type": "uint256"
        }
      ],
      "stateMutability": "view",
      "type": "function"
    },
    {
      "inputs": [
        {
          "internalType": "uint256",
          "name": "tokenId",
          "type": "uint256"
        }
      ],
      "name": "getApproved",
      "outputs": [
        {
          "internalType": "address",
          "name": "",
          "type": "address"
        }
      ],
      "stateMutability": "view",
      "type": "function"
    },
    {
      "inputs": [
        {
          "internalType": "address",
          "name": "owner",
          "type": "address"
        },
        {
          "internalType": "address",
          "name": "operator",
          "type": "address"
        }
      ],
      "name": "isApprovedForAll",
      "outputs": [
        {
          "internalType": "bool",
          "name": "",
          "type": "bool"
        }
      ],
      "stateMutability": "view",
      "type": "function"
    },
    {
      "inputs": [],
      "name": "klvrstokenIds",
      "outputs": [
        {
          "internalType": "uint256",
          "name": "",
          "type": "uint256"
        }
      ],
      "stateMutability": "view",
      "type": "function"
    },
    {
      "inputs": [],
      "name": "maxGiveAway",
      "outputs": [
        {
          "internalType": "uint256",
          "name": "",
          "type": "uint256"
        }
      ],
      "stateMutability": "view",
      "type": "function"
    },
    {
      "inputs": [],
      "name": "maxKlvrsTokenIds",
      "outputs": [
        {
          "internalType": "uint256",
          "name": "",
          "type": "uint256"
        }
      ],
      "stateMutability": "view",
      "type": "function"
    },
    {
      "inputs": [],
      "name": "mint",
      "outputs": [],
      "stateMutability": "payable",
      "type": "function"
    },
    {
      "inputs": [],
      "name": "name",
      "outputs": [
        {
          "internalType": "string",
          "name": "",
          "type": "string"
        }
      ],
      "stateMutability": "view",
      "type": "function"
    },
    {
      "inputs": [],
      "name": "owner",
      "outputs": [
        {
          "internalType": "address",
          "name": "",
          "type": "address"
        }
      ],
      "stateMutability": "view",
      "type": "function"
    },
    {
      "inputs": [
        {
          "internalType": "uint256",
          "name": "tokenId",
          "type": "uint256"
        }
      ],
      "name": "ownerOf",
      "outputs": [
        {
          "internalType": "address",
          "name": "",
          "type": "address"
        }
      ],
      "stateMutability": "view",
      "type": "function"
    },
    {
      "inputs": [],
      "name": "presaleKlvrsEnded",
      "outputs": [
        {
          "internalType": "uint256",
          "name": "",
          "type": "uint256"
        }
      ],
      "stateMutability": "view",
      "type": "function"
    },
    {
      "inputs": [],
      "name": "presaleKlvrsStarted",
      "outputs": [
        {
          "internalType": "bool",
          "name": "",
          "type": "bool"
        }
      ],
      "stateMutability": "view",
      "type": "function"
    },
    {
      "inputs": [],
      "name": "presaleMint",
      "outputs": [],
      "stateMutability": "payable",
      "type": "function"
    },
    {
      "inputs": [],
      "name": "renounceOwnership",
      "outputs": [],
      "stateMutability": "nonpayable",
      "type": "function"
    },
    {
      "inputs": [
        {
          "internalType": "address",
          "name": "from",
          "type": "address"
        },
        {
          "internalType": "address",
          "name": "to",
          "type": "address"
        },
        {
          "internalType": "uint256",
          "name": "tokenId",
          "type": "uint256"
        }
      ],
      "name": "safeTransferFrom",
      "outputs": [],
      "stateMutability": "nonpayable",
      "type": "function"
    },
    {
      "inputs": [
        {
          "internalType": "address",
          "name": "from",
          "type": "address"
        },
        {
          "internalType": "address",
          "name": "to",
          "type": "address"
        },
        {
          "internalType": "uint256",
          "name": "tokenId",
          "type": "uint256"
        },
        {
          "internalType": "bytes",
          "name": "_data",
          "type": "bytes"
        }
      ],
      "name": "safeTransferFrom",
      "outputs": [],
      "stateMutability": "nonpayable",
      "type": "function"
    },
    {
      "inputs": [
        {
          "internalType": "address",
          "name": "operator",
          "type": "address"
        },
        {
          "internalType": "bool",
          "name": "approved",
          "type": "bool"
        }
      ],
      "name": "setApprovalForAll",
      "outputs": [],
      "stateMutability": "nonpayable",
      "type": "function"
    },
    {
      "inputs": [
        {
          "internalType": "bool",
          "name": "val",
          "type": "bool"
        }
      ],
      "name": "setPaused",
      "outputs": [],
      "stateMutability": "nonpayable",
      "type": "function"
    },
    {
      "inputs": [],
      "name": "startPresale",
      "outputs": [],
      "stateMutability": "nonpayable",
      "type": "function"
    },
    {
      "inputs": [
        {
          "internalType": "bytes4",
          "name": "interfaceId",
          "type": "bytes4"
        }
      ],
      "name": "supportsInterface",
      "outputs": [
        {
          "internalType": "bool",
          "name": "",
          "type": "bool"
        }
      ],
      "stateMutability": "view",
      "type": "function"
    },
    {
      "inputs": [],
      "name": "symbol",
      "outputs": [
        {
          "internalType": "string",
          "name": "",
          "type": "string"
        }
      ],
      "stateMutability": "view",
      "type": "function"
    },
    {
      "inputs": [
        {
          "internalType": "uint256",
          "name": "index",
          "type": "uint256"
        }
      ],
      "name": "tokenByIndex",
      "outputs": [
        {
          "internalType": "uint256",
          "name": "",
          "type": "uint256"
        }
      ],
      "stateMutability": "view",
      "type": "function"
    },
    {
      "inputs": [
        {
          "internalType": "address",
          "name": "owner",
          "type": "address"
        },
        {
          "internalType": "uint256",
          "name": "index",
          "type": "uint256"
        }
      ],
      "name": "tokenOfOwnerByIndex",
      "outputs": [
        {
          "internalType": "uint256",
          "name": "",
          "type": "uint256"
        }
      ],
      "stateMutability": "view",
      "type": "function"
    },
    {
      "inputs": [
        {
          "internalType": "uint256",
          "name": "tokenId",
          "type": "uint256"
        }
      ],
      "name": "tokenURI",
      "outputs": [
        {
          "internalType": "string",
          "name": "",
          "type": "string"
        }
      ],
      "stateMutability": "view",
      "type": "function"
    },
    {
      "inputs": [],
      "name": "totalSupply",
      "outputs": [
        {
          "internalType": "uint256",
          "name": "",
          "type": "uint256"
        }
      ],
      "stateMutability": "view",
      "type": "function"
    },
    {
      "inputs": [
        {
          "internalType": "address",
          "name": "from",
          "type": "address"
        },
        {
          "internalType": "address",
          "name": "to",
          "type": "address"
        },
        {
          "internalType": "uint256",
          "name": "tokenId",
          "type": "uint256"
        }
      ],
      "name": "transferFrom",
      "outputs": [],
      "stateMutability": "nonpayable",
      "type": "function"
    },
    {
      "inputs": [
        {
          "internalType": "address",
          "name": "newOwner",
          "type": "address"
        }
      ],
      "name": "transferOwnership",
      "outputs": [],
      "stateMutability": "nonpayable",
      "type": "function"
    },
    {
      "inputs": [],
      "name": "withdraw",
      "outputs": [],
      "stateMutability": "nonpayable",
      "type": "function"
    },
    {
      "stateMutability": "payable",
      "type": "receive"
    }
  ],
  "bytecode": "0x60806040526706f05b59d3b20000600c5560c9600e5560006012553480156200002757600080fd5b50604051620048b7380380620048b783398181016040528101906200004d919062000376565b6040518060400160405280601881526020017f4b6c656f76657273652047656e6573697320546f6b656e7300000000000000008152506040518060400160405280600981526020017f4b4c5652532d474e5300000000000000000000000000000000000000000000008152508160009080519060200190620000d19291906200023d565b508060019080519060200190620000ea9291906200023d565b5050506200010d620001016200016f60201b60201c565b6200017760201b60201c565b81600b9080519060200190620001259291906200023d565b5080601060006101000a81548173ffffffffffffffffffffffffffffffffffffffff021916908373ffffffffffffffffffffffffffffffffffffffff16021790555050506200058e565b600033905090565b6000600a60009054906101000a900473ffffffffffffffffffffffffffffffffffffffff16905081600a60006101000a81548173ffffffffffffffffffffffffffffffffffffffff021916908373ffffffffffffffffffffffffffffffffffffffff1602179055508173ffffffffffffffffffffffffffffffffffffffff168173ffffffffffffffffffffffffffffffffffffffff167f8be0079c531659141344cd1fd0a4f28419497f9722a3daafe3b4186f6b6457e060405160405180910390a35050565b8280546200024b9062000499565b90600052602060002090601f0160209004810192826200026f5760008555620002bb565b82601f106200028a57805160ff1916838001178555620002bb565b82800160010185558215620002bb579182015b82811115620002ba5782518255916020019190600101906200029d565b5b509050620002ca9190620002ce565b5090565b5b80821115620002e9576000816000905550600101620002cf565b5090565b600062000304620002fe84620003f9565b620003d0565b9050828152602081018484840111156200031d57600080fd5b6200032a84828562000463565b509392505050565b600081519050620003438162000574565b92915050565b600082601f8301126200035b57600080fd5b81516200036d848260208601620002ed565b91505092915050565b600080604083850312156200038a57600080fd5b600083015167ffffffffffffffff811115620003a557600080fd5b620003b38582860162000349565b9250506020620003c68582860162000332565b9150509250929050565b6000620003dc620003ef565b9050620003ea8282620004cf565b919050565b6000604051905090565b600067ffffffffffffffff82111562000417576200041662000534565b5b620004228262000563565b9050602081019050919050565b60006200043c8262000443565b9050919050565b600073ffffffffffffffffffffffffffffffffffffffff82169050919050565b60005b838110156200048357808201518184015260208101905062000466565b8381111562000493576000848401525b50505050565b60006002820490506001821680620004b257607f821691505b60208210811415620004c957620004c862000505565b5b50919050565b620004da8262000563565b810181811067ffffffffffffffff82111715620004fc57620004fb62000534565b5b80604052505050565b7f4e487b7100000000000000000000000000000000000000000000000000000000600052602260045260246000fd5b7f4e487b7100000000000000000000000000000000000000000000000000000000600052604160045260246000fd5b6000601f19601f8301169050919050565b6200057f816200042f565b81146200058b57600080fd5b50565b614319806200059e6000396000f3fe6080604052600436106101dc5760003560e01c806351d3391011610102578063a22cb46511610095578063e427c12711610064578063e427c12714610662578063e985e9c51461068d578063f2fde38b146106ca578063f7f50c08146106f3576101e3565b8063a22cb465146105a8578063b88d4fde146105d1578063c87b56dd146105fa578063d0510b8314610637576101e3565b8063715018a6116100d1578063715018a6146105105780638da5cb5b1461052757806395d89b41146105525780639f665dea1461057d576101e3565b806351d339101461046157806359533d6c1461048c5780636352211e1461049657806370a08231146104d3576101e3565b806316c38b3c1161017a5780632f745c59116101495780632f745c59146103a75780633ccfd60b146103e457806342842e0e146103fb5780634f6ccce714610424576101e3565b806316c38b3c146102ff57806318160ddd146103285780631e4ed0961461035357806323b872dd1461037e576101e3565b8063081812fc116101b6578063081812fc14610264578063095ea7b3146102a15780630b28987f146102ca5780631249c58b146102f5576101e3565b806301ffc9a7146101e557806304c98b2b1461022257806306fdde0314610239576101e3565b366101e357005b005b3480156101f157600080fd5b5061020c60048036038101906102079190612e03565b61071e565b60405161021991906133c2565b60405180910390f35b34801561022e57600080fd5b50610237610798565b005b34801561024557600080fd5b5061024e610846565b60405161025b91906133dd565b60405180910390f35b34801561027057600080fd5b5061028b60048036038101906102869190612e55565b6108d8565b604051610298919061335b565b60405180910390f35b3480156102ad57600080fd5b506102c860048036038101906102c39190612d75565b61095d565b005b3480156102d657600080fd5b506102df610a75565b6040516102ec919061375f565b60405180910390f35b6102fd610a7b565b005b34801561030b57600080fd5b5061032660048036038101906103219190612db1565b610c28565b005b34801561033457600080fd5b5061033d610cc1565b60405161034a919061375f565b60405180910390f35b34801561035f57600080fd5b50610368610cce565b60405161037591906133c2565b60405180910390f35b34801561038a57600080fd5b506103a560048036038101906103a09190612c6f565b610ce1565b005b3480156103b357600080fd5b506103ce60048036038101906103c99190612d75565b610d41565b6040516103db919061375f565b60405180910390f35b3480156103f057600080fd5b506103f9610de6565b005b34801561040757600080fd5b50610422600480360381019061041d9190612c6f565b610f24565b005b34801561043057600080fd5b5061044b60048036038101906104469190612e55565b610f44565b604051610458919061375f565b60405180910390f35b34801561046d57600080fd5b50610476610fdb565b604051610483919061375f565b60405180910390f35b610494610fe1565b005b3480156104a257600080fd5b506104bd60048036038101906104b89190612e55565b611277565b6040516104ca919061335b565b60405180910390f35b3480156104df57600080fd5b506104fa60048036038101906104f59190612c0a565b611329565b604051610507919061375f565b60405180910390f35b34801561051c57600080fd5b506105256113e1565b005b34801561053357600080fd5b5061053c611469565b604051610549919061335b565b60405180910390f35b34801561055e57600080fd5b50610567611493565b60405161057491906133dd565b60405180910390f35b34801561058957600080fd5b50610592611525565b60405161059f91906133c2565b60405180910390f35b3480156105b457600080fd5b506105cf60048036038101906105ca9190612d39565b611538565b005b3480156105dd57600080fd5b506105f860048036038101906105f39190612cbe565b61154e565b005b34801561060657600080fd5b50610621600480360381019061061c9190612e55565b6115b0565b60405161062e91906133dd565b60405180910390f35b34801561064357600080fd5b5061064c611657565b604051610659919061375f565b60405180910390f35b34801561066e57600080fd5b5061067761165d565b604051610684919061375f565b60405180910390f35b34801561069957600080fd5b506106b460048036038101906106af9190612c33565b611663565b6040516106c191906133c2565b60405180910390f35b3480156106d657600080fd5b506106f160048036038101906106ec9190612c0a565b6116f7565b005b3480156106ff57600080fd5b506107086117ef565b604051610715919061375f565b60405180910390f35b60007f780e9d63000000000000000000000000000000000000000000000000000000007bffffffffffffffffffffffffffffffffffffffffffffffffffffffff1916827bffffffffffffffffffffffffffffffffffffffffffffffffffffffff191614806107915750610790826117f5565b5b9050919050565b6107a06118d7565b73ffffffffffffffffffffffffffffffffffffffff166107be611469565b73ffffffffffffffffffffffffffffffffffffffff1614610814576040517f08c379a000000000000000000000000000000000000000000000000000000000815260040161080b9061363f565b60405180910390fd5b6001601060146101000a81548160ff02191690831515021790555062017bb04261083e919061381e565b601181905550565b6060600080546108559061398f565b80601f01602080910402602001604051908101604052809291908181526020018280546108819061398f565b80156108ce5780601f106108a3576101008083540402835291602001916108ce565b820191906000526020600020905b8154815290600101906020018083116108b157829003601f168201915b5050505050905090565b60006108e3826118df565b610922576040517f08c379a00000000000000000000000000000000000000000000000000000000081526004016109199061361f565b60405180910390fd5b6004600083815260200190815260200160002060009054906101000a900473ffffffffffffffffffffffffffffffffffffffff169050919050565b600061096882611277565b90508073ffffffffffffffffffffffffffffffffffffffff168373ffffffffffffffffffffffffffffffffffffffff1614156109d9576040517f08c379a00000000000000000000000000000000000000000000000000000000081526004016109d0906136bf565b60405180910390fd5b8073ffffffffffffffffffffffffffffffffffffffff166109f86118d7565b73ffffffffffffffffffffffffffffffffffffffff161480610a275750610a2681610a216118d7565b611663565b5b610a66576040517f08c379a0000000000000000000000000000000000000000000000000000000008152600401610a5d9061359f565b60405180910390fd5b610a70838361194b565b505050565b600f5481565b600d60009054906101000a900460ff1615610acb576040517f08c379a0000000000000000000000000000000000000000000000000000000008152600401610ac29061365f565b60405180910390fd5b601060149054906101000a900460ff168015610ae957506011544210155b610b28576040517f08c379a0000000000000000000000000000000000000000000000000000000008152600401610b1f906136df565b60405180910390fd5b600e54600f5410610b6e576040517f08c379a0000000000000000000000000000000000000000000000000000000008152600401610b659061345f565b60405180910390fd5b600c54341015610bb3576040517f08c379a0000000000000000000000000000000000000000000000000000000008152600401610baa906133ff565b60405180910390fd5b601254610bbf33611329565b1115610c00576040517f08c379a0000000000000000000000000000000000000000000000000000000008152600401610bf79061353f565b60405180910390fd5b6001600f6000828254610c13919061381e565b92505081905550610c2633600f54611a04565b565b610c306118d7565b73ffffffffffffffffffffffffffffffffffffffff16610c4e611469565b73ffffffffffffffffffffffffffffffffffffffff1614610ca4576040517f08c379a0000000000000000000000000000000000000000000000000000000008152600401610c9b9061363f565b60405180910390fd5b80600d60006101000a81548160ff02191690831515021790555050565b6000600880549050905090565b600d60009054906101000a900460ff1681565b610cf2610cec6118d7565b82611a22565b610d31576040517f08c379a0000000000000000000000000000000000000000000000000000000008152600401610d28906136ff565b60405180910390fd5b610d3c838383611b00565b505050565b6000610d4c83611329565b8210610d8d576040517f08c379a0000000000000000000000000000000000000000000000000000000008152600401610d849061341f565b60405180910390fd5b600660008473ffffffffffffffffffffffffffffffffffffffff1673ffffffffffffffffffffffffffffffffffffffff168152602001908152602001600020600083815260200190815260200160002054905092915050565b610dee6118d7565b73ffffffffffffffffffffffffffffffffffffffff16610e0c611469565b73ffffffffffffffffffffffffffffffffffffffff1614610e62576040517f08c379a0000000000000000000000000000000000000000000000000000000008152600401610e599061363f565b60405180910390fd5b6000610e6c611469565b9050600047905060008273ffffffffffffffffffffffffffffffffffffffff1682604051610e9990613346565b60006040518083038185875af1925050503d8060008114610ed6576040519150601f19603f3d011682016040523d82523d6000602084013e610edb565b606091505b5050905080610f1f576040517f08c379a0000000000000000000000000000000000000000000000000000000008152600401610f169061369f565b60405180910390fd5b505050565b610f3f8383836040518060200160405280600081525061154e565b505050565b6000610f4e610cc1565b8210610f8f576040517f08c379a0000000000000000000000000000000000000000000000000000000008152600401610f869061371f565b60405180910390fd5b60088281548110610fc9577f4e487b7100000000000000000000000000000000000000000000000000000000600052603260045260246000fd5b90600052602060002001549050919050565b60115481565b600d60009054906101000a900460ff1615611031576040517f08c379a00000000000000000000000000000000000000000000000000000000081526004016110289061365f565b60405180910390fd5b601060149054906101000a900460ff16801561104e575060115442105b61108d576040517f08c379a00000000000000000000000000000000000000000000000000000000081526004016110849061355f565b60405180910390fd5b601060009054906101000a900473ffffffffffffffffffffffffffffffffffffffff1673ffffffffffffffffffffffffffffffffffffffff166306c933d8336040518263ffffffff1660e01b81526004016110e8919061335b565b60206040518083038186803b15801561110057600080fd5b505afa158015611114573d6000803e3d6000fd5b505050506040513d601f19601f820116820180604052508101906111389190612dda565b611177576040517f08c379a000000000000000000000000000000000000000000000000000000000815260040161116e9061373f565b60405180910390fd5b600e54600f54106111bd576040517f08c379a00000000000000000000000000000000000000000000000000000000081526004016111b4906134df565b60405180910390fd5b600c54341015611202576040517f08c379a00000000000000000000000000000000000000000000000000000000081526004016111f9906133ff565b60405180910390fd5b60125461120e33611329565b111561124f576040517f08c379a00000000000000000000000000000000000000000000000000000000081526004016112469061353f565b60405180910390fd5b6001600f6000828254611262919061381e565b9250508190555061127533600f54611a04565b565b6000806002600084815260200190815260200160002060009054906101000a900473ffffffffffffffffffffffffffffffffffffffff169050600073ffffffffffffffffffffffffffffffffffffffff168173ffffffffffffffffffffffffffffffffffffffff161415611320576040517f08c379a0000000000000000000000000000000000000000000000000000000008152600401611317906135df565b60405180910390fd5b80915050919050565b60008073ffffffffffffffffffffffffffffffffffffffff168273ffffffffffffffffffffffffffffffffffffffff16141561139a576040517f08c379a0000000000000000000000000000000000000000000000000000000008152600401611391906135bf565b60405180910390fd5b600360008373ffffffffffffffffffffffffffffffffffffffff1673ffffffffffffffffffffffffffffffffffffffff168152602001908152602001600020549050919050565b6113e96118d7565b73ffffffffffffffffffffffffffffffffffffffff16611407611469565b73ffffffffffffffffffffffffffffffffffffffff161461145d576040517f08c379a00000000000000000000000000000000000000000000000000000000081526004016114549061363f565b60405180910390fd5b6114676000611d67565b565b6000600a60009054906101000a900473ffffffffffffffffffffffffffffffffffffffff16905090565b6060600180546114a29061398f565b80601f01602080910402602001604051908101604052809291908181526020018280546114ce9061398f565b801561151b5780601f106114f05761010080835404028352916020019161151b565b820191906000526020600020905b8154815290600101906020018083116114fe57829003601f168201915b5050505050905090565b601060149054906101000a900460ff1681565b61154a6115436118d7565b8383611e2d565b5050565b61155f6115596118d7565b83611a22565b61159e576040517f08c379a0000000000000000000000000000000000000000000000000000000008152600401611595906136ff565b60405180910390fd5b6115aa84848484611f9a565b50505050565b60606115bb826118df565b6115fa576040517f08c379a00000000000000000000000000000000000000000000000000000000081526004016115f19061367f565b60405180910390fd5b6000611604611ff6565b90506000815111611624576040518060200160405280600081525061164f565b8061162e84612088565b60405160200161163f929190613322565b6040516020818303038152906040525b915050919050565b600e5481565b60125481565b6000600560008473ffffffffffffffffffffffffffffffffffffffff1673ffffffffffffffffffffffffffffffffffffffff16815260200190815260200160002060008373ffffffffffffffffffffffffffffffffffffffff1673ffffffffffffffffffffffffffffffffffffffff16815260200190815260200160002060009054906101000a900460ff16905092915050565b6116ff6118d7565b73ffffffffffffffffffffffffffffffffffffffff1661171d611469565b73ffffffffffffffffffffffffffffffffffffffff1614611773576040517f08c379a000000000000000000000000000000000000000000000000000000000815260040161176a9061363f565b60405180910390fd5b600073ffffffffffffffffffffffffffffffffffffffff168173ffffffffffffffffffffffffffffffffffffffff1614156117e3576040517f08c379a00000000000000000000000000000000000000000000000000000000081526004016117da9061347f565b60405180910390fd5b6117ec81611d67565b50565b600c5481565b60007f80ac58cd000000000000000000000000000000000000000000000000000000007bffffffffffffffffffffffffffffffffffffffffffffffffffffffff1916827bffffffffffffffffffffffffffffffffffffffffffffffffffffffff191614806118c057507f5b5e139f000000000000000000000000000000000000000000000000000000007bffffffffffffffffffffffffffffffffffffffffffffffffffffffff1916827bffffffffffffffffffffffffffffffffffffffffffffffffffffffff1916145b806118d057506118cf82612235565b5b9050919050565b600033905090565b60008073ffffffffffffffffffffffffffffffffffffffff166002600084815260200190815260200160002060009054906101000a900473ffffffffffffffffffffffffffffffffffffffff1673ffffffffffffffffffffffffffffffffffffffff1614159050919050565b816004600083815260200190815260200160002060006101000a81548173ffffffffffffffffffffffffffffffffffffffff021916908373ffffffffffffffffffffffffffffffffffffffff160217905550808273ffffffffffffffffffffffffffffffffffffffff166119be83611277565b73ffffffffffffffffffffffffffffffffffffffff167f8c5be1e5ebec7d5bd14f71427d1e84f3dd0314c0f7b2291e5b200ac8c7c3b92560405160405180910390a45050565b611a1e82826040518060200160405280600081525061229f565b5050565b6000611a2d826118df565b611a6c576040517f08c379a0000000000000000000000000000000000000000000000000000000008152600401611a639061357f565b60405180910390fd5b6000611a7783611277565b90508073ffffffffffffffffffffffffffffffffffffffff168473ffffffffffffffffffffffffffffffffffffffff161480611ae657508373ffffffffffffffffffffffffffffffffffffffff16611ace846108d8565b73ffffffffffffffffffffffffffffffffffffffff16145b80611af75750611af68185611663565b5b91505092915050565b8273ffffffffffffffffffffffffffffffffffffffff16611b2082611277565b73ffffffffffffffffffffffffffffffffffffffff1614611b76576040517f08c379a0000000000000000000000000000000000000000000000000000000008152600401611b6d9061349f565b60405180910390fd5b600073ffffffffffffffffffffffffffffffffffffffff168273ffffffffffffffffffffffffffffffffffffffff161415611be6576040517f08c379a0000000000000000000000000000000000000000000000000000000008152600401611bdd906134ff565b60405180910390fd5b611bf18383836122fa565b611bfc60008261194b565b6001600360008573ffffffffffffffffffffffffffffffffffffffff1673ffffffffffffffffffffffffffffffffffffffff1681526020019081526020016000206000828254611c4c91906138a5565b925050819055506001600360008473ffffffffffffffffffffffffffffffffffffffff1673ffffffffffffffffffffffffffffffffffffffff1681526020019081526020016000206000828254611ca3919061381e565b92505081905550816002600083815260200190815260200160002060006101000a81548173ffffffffffffffffffffffffffffffffffffffff021916908373ffffffffffffffffffffffffffffffffffffffff160217905550808273ffffffffffffffffffffffffffffffffffffffff168473ffffffffffffffffffffffffffffffffffffffff167fddf252ad1be2c89b69c2b068fc378daa952ba7f163c4a11628f55a4df523b3ef60405160405180910390a4611d6283838361240e565b505050565b6000600a60009054906101000a900473ffffffffffffffffffffffffffffffffffffffff16905081600a60006101000a81548173ffffffffffffffffffffffffffffffffffffffff021916908373ffffffffffffffffffffffffffffffffffffffff1602179055508173ffffffffffffffffffffffffffffffffffffffff168173ffffffffffffffffffffffffffffffffffffffff167f8be0079c531659141344cd1fd0a4f28419497f9722a3daafe3b4186f6b6457e060405160405180910390a35050565b8173ffffffffffffffffffffffffffffffffffffffff168373ffffffffffffffffffffffffffffffffffffffff161415611e9c576040517f08c379a0000000000000000000000000000000000000000000000000000000008152600401611e939061351f565b60405180910390fd5b80600560008573ffffffffffffffffffffffffffffffffffffffff1673ffffffffffffffffffffffffffffffffffffffff16815260200190815260200160002060008473ffffffffffffffffffffffffffffffffffffffff1673ffffffffffffffffffffffffffffffffffffffff16815260200190815260200160002060006101000a81548160ff0219169083151502179055508173ffffffffffffffffffffffffffffffffffffffff168373ffffffffffffffffffffffffffffffffffffffff167f17307eab39ab6107e8899845ad3d59bd9653f200f220920489ca2b5937696c3183604051611f8d91906133c2565b60405180910390a3505050565b611fa5848484611b00565b611fb184848484612413565b611ff0576040517f08c379a0000000000000000000000000000000000000000000000000000000008152600401611fe79061343f565b60405180910390fd5b50505050565b6060600b80546120059061398f565b80601f01602080910402602001604051908101604052809291908181526020018280546120319061398f565b801561207e5780601f106120535761010080835404028352916020019161207e565b820191906000526020600020905b81548152906001019060200180831161206157829003601f168201915b5050505050905090565b606060008214156120d0576040518060400160405280600181526020017f30000000000000000000000000000000000000000000000000000000000000008152509050612230565b600082905060005b600082146121025780806120eb906139f2565b915050600a826120fb9190613874565b91506120d8565b60008167ffffffffffffffff811115612144577f4e487b7100000000000000000000000000000000000000000000000000000000600052604160045260246000fd5b6040519080825280601f01601f1916602001820160405280156121765781602001600182028036833780820191505090505b5090505b600085146122295760018261218f91906138a5565b9150600a8561219e9190613a3b565b60306121aa919061381e565b60f81b8183815181106121e6577f4e487b7100000000000000000000000000000000000000000000000000000000600052603260045260246000fd5b60200101907effffffffffffffffffffffffffffffffffffffffffffffffffffffffffffff1916908160001a905350600a856122229190613874565b945061217a565b8093505050505b919050565b60007f01ffc9a7000000000000000000000000000000000000000000000000000000007bffffffffffffffffffffffffffffffffffffffffffffffffffffffff1916827bffffffffffffffffffffffffffffffffffffffffffffffffffffffff1916149050919050565b6122a983836125aa565b6122b66000848484612413565b6122f5576040517f08c379a00000000000000000000000000000000000000000000000000000000081526004016122ec9061343f565b60405180910390fd5b505050565b612305838383612784565b600073ffffffffffffffffffffffffffffffffffffffff168373ffffffffffffffffffffffffffffffffffffffff1614156123485761234381612789565b612387565b8173ffffffffffffffffffffffffffffffffffffffff168373ffffffffffffffffffffffffffffffffffffffff16146123865761238583826127d2565b5b5b600073ffffffffffffffffffffffffffffffffffffffff168273ffffffffffffffffffffffffffffffffffffffff1614156123ca576123c58161293f565b612409565b8273ffffffffffffffffffffffffffffffffffffffff168273ffffffffffffffffffffffffffffffffffffffff1614612408576124078282612a82565b5b5b505050565b505050565b60006124348473ffffffffffffffffffffffffffffffffffffffff16612b01565b1561259d578373ffffffffffffffffffffffffffffffffffffffff1663150b7a0261245d6118d7565b8786866040518563ffffffff1660e01b815260040161247f9493929190613376565b602060405180830381600087803b15801561249957600080fd5b505af19250505080156124ca57506040513d601f19601f820116820180604052508101906124c79190612e2c565b60015b61254d573d80600081146124fa576040519150601f19603f3d011682016040523d82523d6000602084013e6124ff565b606091505b50600081511415612545576040517f08c379a000000000000000000000000000000000000000000000000000000000815260040161253c9061343f565b60405180910390fd5b805181602001fd5b63150b7a0260e01b7bffffffffffffffffffffffffffffffffffffffffffffffffffffffff1916817bffffffffffffffffffffffffffffffffffffffffffffffffffffffff1916149150506125a2565b600190505b949350505050565b600073ffffffffffffffffffffffffffffffffffffffff168273ffffffffffffffffffffffffffffffffffffffff16141561261a576040517f08c379a0000000000000000000000000000000000000000000000000000000008152600401612611906135ff565b60405180910390fd5b612623816118df565b15612663576040517f08c379a000000000000000000000000000000000000000000000000000000000815260040161265a906134bf565b60405180910390fd5b61266f600083836122fa565b6001600360008473ffffffffffffffffffffffffffffffffffffffff1673ffffffffffffffffffffffffffffffffffffffff16815260200190815260200160002060008282546126bf919061381e565b92505081905550816002600083815260200190815260200160002060006101000a81548173ffffffffffffffffffffffffffffffffffffffff021916908373ffffffffffffffffffffffffffffffffffffffff160217905550808273ffffffffffffffffffffffffffffffffffffffff16600073ffffffffffffffffffffffffffffffffffffffff167fddf252ad1be2c89b69c2b068fc378daa952ba7f163c4a11628f55a4df523b3ef60405160405180910390a46127806000838361240e565b5050565b505050565b6008805490506009600083815260200190815260200160002081905550600881908060018154018082558091505060019003906000526020600020016000909190919091505550565b600060016127df84611329565b6127e991906138a5565b90506000600760008481526020019081526020016000205490508181146128ce576000600660008673ffffffffffffffffffffffffffffffffffffffff1673ffffffffffffffffffffffffffffffffffffffff168152602001908152602001600020600084815260200190815260200160002054905080600660008773ffffffffffffffffffffffffffffffffffffffff1673ffffffffffffffffffffffffffffffffffffffff168152602001908152602001600020600084815260200190815260200160002081905550816007600083815260200190815260200160002081905550505b6007600084815260200190815260200160002060009055600660008573ffffffffffffffffffffffffffffffffffffffff1673ffffffffffffffffffffffffffffffffffffffff16815260200190815260200160002060008381526020019081526020016000206000905550505050565b6000600160088054905061295391906138a5565b90506000600960008481526020019081526020016000205490506000600883815481106129a9577f4e487b7100000000000000000000000000000000000000000000000000000000600052603260045260246000fd5b9060005260206000200154905080600883815481106129f1577f4e487b7100000000000000000000000000000000000000000000000000000000600052603260045260246000fd5b906000526020600020018190555081600960008381526020019081526020016000208190555060096000858152602001908152602001600020600090556008805480612a66577f4e487b7100000000000000000000000000000000000000000000000000000000600052603160045260246000fd5b6001900381819060005260206000200160009055905550505050565b6000612a8d83611329565b905081600660008573ffffffffffffffffffffffffffffffffffffffff1673ffffffffffffffffffffffffffffffffffffffff168152602001908152602001600020600083815260200190815260200160002081905550806007600084815260200190815260200160002081905550505050565b6000808273ffffffffffffffffffffffffffffffffffffffff163b119050919050565b6000612b37612b328461379f565b61377a565b905082815260208101848484011115612b4f57600080fd5b612b5a84828561394d565b509392505050565b600081359050612b7181614287565b92915050565b600081359050612b868161429e565b92915050565b600081519050612b9b8161429e565b92915050565b600081359050612bb0816142b5565b92915050565b600081519050612bc5816142b5565b92915050565b600082601f830112612bdc57600080fd5b8135612bec848260208601612b24565b91505092915050565b600081359050612c04816142cc565b92915050565b600060208284031215612c1c57600080fd5b6000612c2a84828501612b62565b91505092915050565b60008060408385031215612c4657600080fd5b6000612c5485828601612b62565b9250506020612c6585828601612b62565b9150509250929050565b600080600060608486031215612c8457600080fd5b6000612c9286828701612b62565b9350506020612ca386828701612b62565b9250506040612cb486828701612bf5565b9150509250925092565b60008060008060808587031215612cd457600080fd5b6000612ce287828801612b62565b9450506020612cf387828801612b62565b9350506040612d0487828801612bf5565b925050606085013567ffffffffffffffff811115612d2157600080fd5b612d2d87828801612bcb565b91505092959194509250565b60008060408385031215612d4c57600080fd5b6000612d5a85828601612b62565b9250506020612d6b85828601612b77565b9150509250929050565b60008060408385031215612d8857600080fd5b6000612d9685828601612b62565b9250506020612da785828601612bf5565b9150509250929050565b600060208284031215612dc357600080fd5b6000612dd184828501612b77565b91505092915050565b600060208284031215612dec57600080fd5b6000612dfa84828501612b8c565b91505092915050565b600060208284031215612e1557600080fd5b6000612e2384828501612ba1565b91505092915050565b600060208284031215612e3e57600080fd5b6000612e4c84828501612bb6565b91505092915050565b600060208284031215612e6757600080fd5b6000612e7584828501612bf5565b91505092915050565b612e87816138d9565b82525050565b612e96816138eb565b82525050565b6000612ea7826137d0565b612eb181856137e6565b9350612ec181856020860161395c565b612eca81613b28565b840191505092915050565b6000612ee0826137db565b612eea8185613802565b9350612efa81856020860161395c565b612f0381613b28565b840191505092915050565b6000612f19826137db565b612f238185613813565b9350612f3381856020860161395c565b80840191505092915050565b6000612f4c602283613802565b9150612f5782613b39565b604082019050919050565b6000612f6f602b83613802565b9150612f7a82613b88565b604082019050919050565b6000612f92603283613802565b9150612f9d82613bd7565b604082019050919050565b6000612fb5602583613802565b9150612fc082613c26565b604082019050919050565b6000612fd8602683613802565b9150612fe382613c75565b604082019050919050565b6000612ffb602583613802565b915061300682613cc4565b604082019050919050565b600061301e601c83613802565b915061302982613d13565b602082019050919050565b6000613041602683613802565b915061304c82613d3c565b604082019050919050565b6000613064602483613802565b915061306f82613d8b565b604082019050919050565b6000613087601983613802565b915061309282613dda565b602082019050919050565b60006130aa601383613802565b91506130b582613e03565b602082019050919050565b60006130cd602083613802565b91506130d882613e2c565b602082019050919050565b60006130f0602c83613802565b91506130fb82613e55565b604082019050919050565b6000613113603883613802565b915061311e82613ea4565b604082019050919050565b6000613136602a83613802565b915061314182613ef3565b604082019050919050565b6000613159602983613802565b915061316482613f42565b604082019050919050565b600061317c602083613802565b915061318782613f91565b602082019050919050565b600061319f602c83613802565b91506131aa82613fba565b604082019050919050565b60006131c2602083613802565b91506131cd82614009565b602082019050919050565b60006131e5602383613802565b91506131f082614032565b604082019050919050565b6000613208602f83613802565b915061321382614081565b604082019050919050565b600061322b601d83613802565b9150613236826140d0565b602082019050919050565b600061324e602183613802565b9150613259826140f9565b604082019050919050565b6000613271602383613802565b915061327c82614148565b604082019050919050565b60006132946000836137f7565b915061329f82614197565b600082019050919050565b60006132b7603183613802565b91506132c28261419a565b604082019050919050565b60006132da602c83613802565b91506132e5826141e9565b604082019050919050565b60006132fd603d83613802565b915061330882614238565b604082019050919050565b61331c81613943565b82525050565b600061332e8285612f0e565b915061333a8284612f0e565b91508190509392505050565b600061335182613287565b9150819050919050565b60006020820190506133706000830184612e7e565b92915050565b600060808201905061338b6000830187612e7e565b6133986020830186612e7e565b6133a56040830185613313565b81810360608301526133b78184612e9c565b905095945050505050565b60006020820190506133d76000830184612e8d565b92915050565b600060208201905081810360008301526133f78184612ed5565b905092915050565b6000602082019050818103600083015261341881612f3f565b9050919050565b6000602082019050818103600083015261343881612f62565b9050919050565b6000602082019050818103600083015261345881612f85565b9050919050565b6000602082019050818103600083015261347881612fa8565b9050919050565b6000602082019050818103600083015261349881612fcb565b9050919050565b600060208201905081810360008301526134b881612fee565b9050919050565b600060208201905081810360008301526134d881613011565b9050919050565b600060208201905081810360008301526134f881613034565b9050919050565b6000602082019050818103600083015261351881613057565b9050919050565b600060208201905081810360008301526135388161307a565b9050919050565b600060208201905081810360008301526135588161309d565b9050919050565b60006020820190508181036000830152613578816130c0565b9050919050565b60006020820190508181036000830152613598816130e3565b9050919050565b600060208201905081810360008301526135b881613106565b9050919050565b600060208201905081810360008301526135d881613129565b9050919050565b600060208201905081810360008301526135f88161314c565b9050919050565b600060208201905081810360008301526136188161316f565b9050919050565b6000602082019050818103600083015261363881613192565b9050919050565b60006020820190508181036000830152613658816131b5565b9050919050565b60006020820190508181036000830152613678816131d8565b9050919050565b60006020820190508181036000830152613698816131fb565b9050919050565b600060208201905081810360008301526136b88161321e565b9050919050565b600060208201905081810360008301526136d881613241565b9050919050565b600060208201905081810360008301526136f881613264565b9050919050565b60006020820190508181036000830152613718816132aa565b9050919050565b60006020820190508181036000830152613738816132cd565b9050919050565b60006020820190508181036000830152613758816132f0565b9050919050565b60006020820190506137746000830184613313565b92915050565b6000613784613795565b905061379082826139c1565b919050565b6000604051905090565b600067ffffffffffffffff8211156137ba576137b9613af9565b5b6137c382613b28565b9050602081019050919050565b600081519050919050565b600081519050919050565b600082825260208201905092915050565b600081905092915050565b600082825260208201905092915050565b600081905092915050565b600061382982613943565b915061383483613943565b9250827fffffffffffffffffffffffffffffffffffffffffffffffffffffffffffffffff0382111561386957613868613a6c565b5b828201905092915050565b600061387f82613943565b915061388a83613943565b92508261389a57613899613a9b565b5b828204905092915050565b60006138b082613943565b91506138bb83613943565b9250828210156138ce576138cd613a6c565b5b828203905092915050565b60006138e482613923565b9050919050565b60008115159050919050565b60007fffffffff0000000000000000000000000000000000000000000000000000000082169050919050565b600073ffffffffffffffffffffffffffffffffffffffff82169050919050565b6000819050919050565b82818337600083830152505050565b60005b8381101561397a57808201518184015260208101905061395f565b83811115613989576000848401525b50505050565b600060028204905060018216806139a757607f821691505b602082108114156139bb576139ba613aca565b5b50919050565b6139ca82613b28565b810181811067ffffffffffffffff821117156139e9576139e8613af9565b5b80604052505050565b60006139fd82613943565b91507fffffffffffffffffffffffffffffffffffffffffffffffffffffffffffffffff821415613a3057613a2f613a6c565b5b600182019050919050565b6000613a4682613943565b9150613a5183613943565b925082613a6157613a60613a9b565b5b828206905092915050565b7f4e487b7100000000000000000000000000000000000000000000000000000000600052601160045260246000fd5b7f4e487b7100000000000000000000000000000000000000000000000000000000600052601260045260246000fd5b7f4e487b7100000000000000000000000000000000000000000000000000000000600052602260045260246000fd5b7f4e487b7100000000000000000000000000000000000000000000000000000000600052604160045260246000fd5b6000601f19601f8301169050919050565b7f4574686572206f72204d617469632073656e74206973206e6f7420636f72726560008201527f6374000000000000000000000000000000000000000000000000000000000000602082015250565b7f455243373231456e756d657261626c653a206f776e657220696e646578206f7560008201527f74206f6620626f756e6473000000000000000000000000000000000000000000602082015250565b7f4552433732313a207472616e7366657220746f206e6f6e20455243373231526560008201527f63656976657220696d706c656d656e7465720000000000000000000000000000602082015250565b7f457863656564206d6178696d756d204b6c656f766572736520546f6b656e207360008201527f7570706c79000000000000000000000000000000000000000000000000000000602082015250565b7f4f776e61626c653a206e6577206f776e657220697320746865207a65726f206160008201527f6464726573730000000000000000000000000000000000000000000000000000602082015250565b7f4552433732313a207472616e736665722066726f6d20696e636f72726563742060008201527f6f776e6572000000000000000000000000000000000000000000000000000000602082015250565b7f4552433732313a20746f6b656e20616c7265616479206d696e74656400000000600082015250565b7f4578636565646564206d6178696d756d204b6c65766572736520546f6b656e2060008201527f737570706c790000000000000000000000000000000000000000000000000000602082015250565b7f4552433732313a207472616e7366657220746f20746865207a65726f2061646460008201527f7265737300000000000000000000000000000000000000000000000000000000602082015250565b7f4552433732313a20617070726f766520746f2063616c6c657200000000000000600082015250565b7f4e6f206d6f726520617661696c61626c652e2100000000000000000000000000600082015250565b7f4b6c656f76657273652050726573616c65206973206e6f742072756e6e696e67600082015250565b7f4552433732313a206f70657261746f7220717565727920666f72206e6f6e657860008201527f697374656e7420746f6b656e0000000000000000000000000000000000000000602082015250565b7f4552433732313a20617070726f76652063616c6c6572206973206e6f74206f7760008201527f6e6572206e6f7220617070726f76656420666f7220616c6c0000000000000000602082015250565b7f4552433732313a2062616c616e636520717565727920666f7220746865207a6560008201527f726f206164647265737300000000000000000000000000000000000000000000602082015250565b7f4552433732313a206f776e657220717565727920666f72206e6f6e657869737460008201527f656e7420746f6b656e0000000000000000000000000000000000000000000000602082015250565b7f4552433732313a206d696e7420746f20746865207a65726f2061646472657373600082015250565b7f4552433732313a20617070726f76656420717565727920666f72206e6f6e657860008201527f697374656e7420746f6b656e0000000000000000000000000000000000000000602082015250565b7f4f776e61626c653a2063616c6c6572206973206e6f7420746865206f776e6572600082015250565b7f4b6c656f766572736520436f6e74726163742063757272656e746c792070617560008201527f7365640000000000000000000000000000000000000000000000000000000000602082015250565b7f4552433732314d657461646174613a2055524920717565727920666f72206e6f60008201527f6e6578697374656e7420746f6b656e0000000000000000000000000000000000602082015250565b7f4661696c656420746f2073656e64204574686572206f72204d61746963000000600082015250565b7f4552433732313a20617070726f76616c20746f2063757272656e74206f776e6560008201527f7200000000000000000000000000000000000000000000000000000000000000602082015250565b7f4b6c656f76657273652050726573616c6520686173206e6f7420656e6465642060008201527f7965740000000000000000000000000000000000000000000000000000000000602082015250565b50565b7f4552433732313a207472616e736665722063616c6c6572206973206e6f74206f60008201527f776e6572206e6f7220617070726f766564000000000000000000000000000000602082015250565b7f455243373231456e756d657261626c653a20676c6f62616c20696e646578206f60008201527f7574206f6620626f756e64730000000000000000000000000000000000000000602082015250565b7f596f7520617265206e6f742077686974656c697374656420696e204b6c656f7660008201527f6572736520446f6d61696e20666f722050726573616c65204f66666572000000602082015250565b614290816138d9565b811461429b57600080fd5b50565b6142a7816138eb565b81146142b257600080fd5b50565b6142be816138f7565b81146142c957600080fd5b50565b6142d581613943565b81146142e057600080fd5b5056fea2646970667358221220837d92c0f665a09bfcc247f0d5447a1a794ff14a066ee9b9c3fd94377419341064736f6c63430008040033",
  "linkReferences": {},
  "deployedLinkReferences": {}
}